{
  "contractName": "Migrations",
  "abi": [
    {
      "inputs": [],
      "stateMutability": "nonpayable",
      "type": "constructor"
    },
    {
      "inputs": [],
      "name": "last_completed_migration",
      "outputs": [
        {
          "internalType": "uint256",
          "name": "",
          "type": "uint256"
        }
      ],
      "stateMutability": "view",
      "type": "function",
      "constant": true
    },
    {
      "inputs": [],
      "name": "owner",
      "outputs": [
        {
          "internalType": "address",
          "name": "",
          "type": "address"
        }
      ],
      "stateMutability": "view",
      "type": "function",
      "constant": true
    },
    {
      "inputs": [
        {
          "internalType": "uint256",
          "name": "completed",
          "type": "uint256"
        }
      ],
      "name": "setCompleted",
      "outputs": [],
      "stateMutability": "nonpayable",
      "type": "function"
    }
  ],
  "bytecode": "0x608060405234801561001057600080fd5b50336000806101000a81548173ffffffffffffffffffffffffffffffffffffffff021916908373ffffffffffffffffffffffffffffffffffffffff160217905550610242806100606000396000f3fe608060405234801561001057600080fd5b50600436106100415760003560e01c8063445df0ac146100465780638da5cb5b14610064578063fdacd57614610082575b600080fd5b61004e61009e565b60405161005b919061019e565b60405180910390f35b61006c6100a4565b6040516100799190610183565b60405180910390f35b61009c6004803603810190610097919061013c565b6100c8565b005b60015481565b60008054906101000a900473ffffffffffffffffffffffffffffffffffffffff1681565b60008054906101000a900473ffffffffffffffffffffffffffffffffffffffff1673ffffffffffffffffffffffffffffffffffffffff163373ffffffffffffffffffffffffffffffffffffffff16141561012457806001819055505b50565b600081359050610136816101f5565b92915050565b60006020828403121561014e57600080fd5b600061015c84828501610127565b91505092915050565b61016e816101b9565b82525050565b61017d816101eb565b82525050565b60006020820190506101986000830184610165565b92915050565b60006020820190506101b36000830184610174565b92915050565b60006101c4826101cb565b9050919050565b600073ffffffffffffffffffffffffffffffffffffffff82169050919050565b6000819050919050565b6101fe816101eb565b811461020957600080fd5b5056fea264697066735822122088245442aebbe993dcc7d4c5eb0e687f8e39f5304131ff1dd6d45dea7a17582764736f6c63430008000033",
  "immutableReferences": {},
  "source": "//\"SPDX-License-Identifier:UNLICENSED\"\r\n\r\npragma solidity >=0.4.21 <0.9.0;\r\n\r\ncontract Migrations {\r\n    address public owner;\r\n    uint256 public last_completed_migration;\r\n\r\n    constructor() {\r\n        owner = msg.sender;\r\n    }\r\n\r\n    modifier restricted() {\r\n        if (msg.sender == owner) _;\r\n    }\r\n\r\n    function setCompleted(uint256 completed) public restricted {\r\n        last_completed_migration = completed;\r\n    }\r\n}\r\n",
  "sourcePath": "D:\\Github\\decentralized-exchange-ERC20\\contracts\\Migrations.sol",
  "compiler": {
    "name": "solc",
    "version": "0.8.0+commit.c7dfd78e.Emscripten.clang"
  },
  "schemaVersion": "3.4.3",
  "updatedAt": "2022-03-17T23:51:02.168Z",
  "networkType": "ethereum",
  "devdoc": {
    "kind": "dev",
    "methods": {},
    "version": 1
  },
  "userdoc": {
    "kind": "user",
    "methods": {},
    "version": 1
  }
}